:020000040800F2
:10000000E82E0020D1020008A9570008E752000896
:1000100061570008D529000855620008000000005B
:10002000000000000000000000000000390200088D
:10003000352A0008000000007D020008D959000898
:10004000EB020008EB020008EB020008EB020008DC
:10005000EB020008EB020008EB020008EB020008CC
:10006000EB020008EB020008EB020008EB020008BC
:10007000EB020008EB020008D9290008E529000876
:10008000F1290008FD290008EB0200083D62000884
:1000900049620008EB020008EB020008EB020008CE
:1000A000EB020008555A0008EB020008EB020008BA
:1000B000EB020008EB020008615A0008EB0200089E
:1000C000EB020008EB020008EB020008EB0200085C
:1000D000EB0200082562000831620008EB0200080C
:1000E000EB020008EB020008EB020008EB0200083C
:1000F000EB020008EB020008EB020008EB0200082C
:10010000EB020008EB020008EB020008EB0200081B
:10011000EB020008EB020008EB020008EB0200080B
:10012000EB020008EB020008EB020008EB020008FB
:1001300000F002F800F071F80AA090E8000C824488
:100140008344AAF10107DA4501D100F066F8AFF265
:10015000090EBAE80F0013F0010F18BFFB1A43F0A5
:100160000103184780C70000A0C700000A444FF0F1
:10017000000C10F8013B13F0070408BF10F8014B06
:100180001D1108BF10F8015B641E05D010F8016B4B
:10019000641E01F8016BF9D113F0080F1EBF10F8AF
:1001A000014BAD1C0C1B09D16D1E58BF01F801CBD2
:1001B000FAD505E014F8016B01F8016B6D1EF9D555
:1001C0009142D6D37047000000230024002500266A
:1001D000103A28BF78C1FBD8520728BF30C148BFAA
:1001E0000B607047642900F0AF81002070471FB595
:1001F0009DE8030000F09AFB01F024FC04000020BD
:1002000000210BF047F9401C6060002000210BF03A
:100210002BF9E0601FBD10B510BD01F0E6FB1146E3
:10022000FFF7E5FF08F09AF801F086FC03B4FFF74A
:10023000F2FF03BC01F0B6FC224B19680868B0E875
:10024000F00F80F30988BFF36F8F4FF0000080F349
:1002500011884EF00D0E704700000000064800683F
:10026000006880F3088862B661B6BFF34F8FBFF3B2
:100270006F8F00DF00BF00BF08ED00E0EFF30980E3
:10028000BFF36F8F0F4B1A6820E9F00F106008B5AD
:100290004FF0500080F31188BFF34F8FBFF36F8F83
:1002A0000AF0B8FB4FF0000080F31188BDE8084069
:1002B00019680868B0E8F00F80F30988BFF36F8F02
:1002C000704700BF1C020020EFF30580704700005C
:1002D0000948804709480047FEE7FEE7FEE7FEE7DA
:1002E000FEE7FEE7FEE7FEE7FEE7FEE70448054916
:1002F000054A064B70470000535A000831010008B8
:10030000E8280020E82E0020E82A0020E82A002023
:1003100070B5064600F0EEFA056806F10B0020F015
:100320000704B4429CBF002070BD2B466A68BAB176
:100330001068A04210D304F1080188423CBF506805
:10034000586007D35168101941601168091B01609A
:1003500058601460101D70BD13465268002AE7D122
:100360002146284600F0CEFA0028DED170BD70B5D7
:100370000446051F00F0BEFA0068002C14BF446854
:1003800070BD002C18BFAC423CBF20466468F8D357
:1003900001680A18AA4218BF456003D12A680546B9
:1003A0001144016028684119A1421CBF6C6070BDF6
:1003B0006168696021680844286070BD53EA020CD6
:1003C00000F069802DE9F04B4FF00006002B1FBFB5
:1003D000B3FA83F503FA05F424FA05F65E4012BF7A
:1003E0001643B2FA82F502FA05F4C5F120051EBFE4
:1003F00022FA05FC44EA0C04203556EA044C4FEA84
:10040000144418BF641C4FF000084FF000099042DC
:1004100071EB030C39D3002919BFB1FA81F701FA46
:1004200007F6B0FA80F700FA07F6C7F120071EBFFB
:1004300020FA07FC46EA0C062037B6FBF4FCA7EBD3
:100440000507103F07F01F0BCBF120060CFA0BFB42
:100450002CFA06F644BFB3460026202FA4BF5E4602
:100460004FF0000B5BEA060C08BF4FF0010B19EBD5
:100470000B09ABFB027C48EB0608C01B06FB02CC59
:100480000BFB03CC71EB0C01C1E70B460246414666
:100490004846BDE8F08B13B54FF000004FF0000167
:1004A000AFF30080BDE81C40704700000FB41CB5DE
:1004B0000C0007AA009001D02044401E074B7B444B
:1004C00069460190069800F0C6FA002C03D06946F0
:1004D000002000F0D3FA1CBC5DF814FBC505000039
:1004E0002DE9F0410E460446002020622046E168D6
:1004F000884730B3252805D0D4E901219047206AE8
:10050000401CF2E7E168204600278847050018D024
:10051000A5F14100192802D820354FF40067324672
:10052000294620462760FFF75DFE40B1012804D030
:10053000F61D26F007060836D8E7361DD6E728460A
:10054000DAE7206ABDE8F0812DE9F0410646002493
:1005500010687529314616A510D0AFF30080002829
:1005600002DA404213A507E031688A0701D512A5D7
:1005700002E0490704D511A5012401E0AFF3008092
:1005800000210A2206F1240709E0B0FBF2FCB0FBCF
:10059000F2F302FB1C00303078541846491C002846
:1005A000F3D123462A463046BDE8F04100F0F4B9C5
:1005B000000000002D0000002B00000020000000C3
:1005C0000FB400B58DB010A9099000910B904FF0B9
:1005D000FF300A9000200C900648784406900648A8
:1005E00078446A4607900F9909A800F083FB0DB084
:1005F0005DF814FB370700004F0700000FB400B58B
:100600008DB010A9099000910B904FF0FF300A9027
:1006100000200C90064878440690064878446A46C4
:1006200007900F9909A800F065FB0DB05DF814FB69
:10063000FB060000130700002DE9FF5F1D464FF089
:10064000FF3B91464FF000085F46D5E90146A96996
:1006500001987F1C8847296A824688470028F6D17E
:10066000BAF1FF3F0CD0002E24F4C06419DD6006FF
:1006700014D5BAF12B0F09D0BAF12D0F0ED103E02A
:10068000584604B0BDE8F09F44F48064A96901981D
:100690007F1C8847761E8246002E02DDBAF1300F9D
:1006A00003D0B9F1000F26D032E0A969761E019877
:1006B0007F1C44F400748847002E824605DDBAF1A1
:1006C000780F06D0BAF1580F03D0B9F1000F10D04F
:1006D0001EE0B9F1000F02D0B9F1100F18D1A969CD
:1006E000761E01987F1C24F40074884782461020EF
:1006F00002E0082000E00A20814609E0A96908FB21
:100700000908761E01987F1C44F4007488478246CD
:10071000002E05DD4946504600F0BDF90028EDDA0F
:10072000E96901988847A00502D46FF00100A8E7A5
:10073000E00725D1600613D5600502D5C8F1000099
:1007400000E0404629680A1D2A600968220501D593
:10075000087015E0220701D5088011E008600FE05D
:100760002868011D29600068210502D580F80080F5
:1007700006E0210702D5A0F8008001E0C0F8008063
:1007800038467EE710B5431C02E010F8011B71B13A
:100790008107FAD14FF0013202C88C1A8C4314EA57
:1007A000C211F9D0C01A0A0603D0C01E10BDC01A6B
:1007B00010BD0A0401D0801E10BD0902FCD0401EED
:1007C00010BD032A40F2308010F0030C00F01580B9
:1007D00011F8013BBCF1020F624498BF11F801CB44
:1007E00000F8013B38BF11F8013BA2F1040298BFA9
:1007F00000F801CB38BF00F8013B11F0030300F013
:100800000F84083AC0F0088051F8043B083A51F8C8
:1008100004CBA0E80810F5E7121D5CBF51F8043BBB
:1008200040F8043BAFF30080D20724BF11F8013B2E
:1008300011F801CB48BF11F8012B24BF00F8013B90
:1008400000F801CB48BF00F8012B704702F0FF030E
:1008500043EA032242EA024200F002B84FF00002EB
:100860000429C0F0128010F0030C00F01B80CCF1C2
:10087000040CBCF1020F18BF00F8012BA8BF20F830
:10088000022BA1EB0C0100F00DB85FEAC17C24BF84
:1008900000F8012B00F8012B48BF00F8012B70472E
:1008A0004FF0000200B5134694469646203922BF09
:1008B000A0E80C50A0E80C50B1F12001BFF4F7AF54
:1008C000090728BFA0E80C5048BF0CC05DF804EB36
:1008D000890028BF40F8042B08BF704748BF20F8A4
:1008E000022B11F0804F18BF00F8012B70477047A2
:1008F0007047704700487047902800207047704745
:100900007047704738B504460A4600206946AFF381
:100910000080002808BF38BD02460099204600F03C
:10092000B5FB012038BD012001F057B8F8B5AFF391
:100930000080054600200C46102000BF0646A8197E
:10094000A0420DD9324669460020AFF3008007006F
:1009500008BF01F042F80098A04218BF0546C4192C
:10096000FFF7C8FF05600746F01D20F00700461995
:10097000284600F00AF8B44208BFF8BDA21B314671
:100980003868BDE8F84000F081BB00210160C0E993
:1009900001107047102070472DE9F0470D46994629
:1009A0009246044600F124080168880604D5E069EF
:1009B00021F01001216000E00120A84201DD471B69
:1009C00000E00027A1697A1902EB0900081AA0616A
:1009D0002078C00602D42046AFF30080002608E04D
:1009E000D4E901211AF806009047206A401C761CC1
:1009F00020624E45F4DB2078C0060AD52046AFF3CE
:100A0000008006E0D4E9012130209047206A401C94
:100A10002062381EA7F10107F4DC07E0D4E90121C8
:100A200018F805009047206A401C2062281EA5F196
:100A30000105F3DC2046AFF300802078000602D5E4
:100A40000220BDE8F0870120FBE7000001694A1C95
:100A500002610878704700B58FB0CDE901310021FF
:100A6000059105497944CDE9031011466846FFF721
:100A700037FD0FB000BD0000E5FFFFFF0A6802F878
:100A8000010B0A607047D1E900239A4202D2531C3D
:100A90000B60107070473A2800D2303820F02002E6
:100AA000412A01D3A2F13700884201D34FF0FF3031
:100AB00070472DE9FF4F1C4691464FF0FF3581B03E
:100AC00000218A468846D4E90167A16902986D1C15
:100AD0008847216A834688470028F6D1BBF1FF3F4B
:100AE0000CD0002F26F4C0661ADD700615D5BBF1B8
:100AF0002B0F0AD0BBF12D0F0FD104E04FF0FF30C8
:100B000005B0BDE8F08F46F48066A16902986D1CBF
:100B100088477F1E8346002F02DDBBF1300F03D0D4
:100B2000B9F1000F2AD025E0A1696D1C02987F1E43
:100B300046F400768847002F834605DDBBF1780F29
:100B400006D0BBF1580F03D0B9F1000F10D011E05F
:100B5000B9F1000F02D0B9F1100F0BD1A1696D1CD2
:100B600002987F1E26F4007688478346102000E016
:100B7000082081464FEAE970009017E00A20F8E764
:100B80004346AAFB0928DDF800C07F1E03FB09804D
:100B900046F4007605F101050AFB0C0112EB0B0A85
:100BA000029841EBEB78A16988478346002F06DD68
:100BB00049465846FFF76FFF5FEA000BE0D5E16951
:100BC00002988847B00502D46FF0010098E7F0075B
:100BD00018D1700610D55146700505D50023D1EB0C
:100BE000030163EB080200E042462068031D236016
:100BF0000068C0E9001205E02068011D216000685E
:100C0000C0E900A828467BE72DE9FF5F4FF0000808
:100C10009946144646469169D2E901A7DDF838B0F5
:100C200001988847054659EA0B0005D009E0A169FB
:100C30000198761C88470546216A2846884700287F
:100C4000F5D1681C03D05FEACA7005D015E04FF0FB
:100C5000FF3004B0BDE8F09F2068011D2160D0F88E
:100C600000800AE05FEACA7001D108F8015BA1695F
:100C7000761C01987F1E88470546002F1ADD681CE8
:100C800018D0B9F1000F0DD0E81705EBD060421174
:100C900020F01F0059F822102A1A0120904001422A
:100CA000E0D107E0BBF1000FDCD12846216A88477C
:100CB0000028D7D0E16901988847BBF1000F07D120
:100CC000002E05DD5FEACA7002D1002188F800100D
:100CD000A068B84203DDBBF1000F03D017B16FF07D
:100CE0000100B6E73046B4E70268114413780160AA
:100CF00018467047D16005497944516104497944E7
:100D0000116200211161114600F0E4B9EDFFFFFF0F
:100D1000BF030000426842B1016811F8013B23B1F2
:100D2000521EC0E90012184670470121C160881E9A
:100D3000704742685AB1C368016843B983688B42FF
:100D400005D0491E521CC0E90012002070474FF028
:100D5000FF3070472DE9FF4F4FF000089A461446C8
:100D6000C146464683B0D2E901B7CDF80080CDF840
:100D70000480916904988847109905465AEA010051
:100D800005D009E0A1690498761C88470546216AC8
:100D9000284688470028F5D1681C03D05FEACB704D
:100DA00005D02AE04FF0FF3007B0BDE8F08F206893
:100DB000011D2160D0F800801FE002A86A46E9B258
:100DC00000F0CDFD411C07D0801C09D04FF0000978
:100DD0005FEACB7007D00AE0E169049888473EE0FB
:100DE0004FF0010904E0BDF8081028F8021B7F1E2F
:100DF000A1690498761C88470546002F1ADD681CF7
:100E000018D0BAF1000F0DD0E81705EBD0604211F1
:100E100020F01F005AF822102A1A012090400142A7
:100E2000CBD107E010980028C7D12846216A88470F
:100E30000028C2D0E16904988847B9F1000F0ED1AB
:100E4000109830B9002E04DD5FEACB7001D1A8F80C
:100E50000000A068B84202DD109818B117B16FF019
:100E60000100A1E730469FE72DE9FF4F4FF0000852
:100E70009B461446454683B0D2E90196CDF80080E2
:100E8000CDF804809169DDF848A0049888470746AA
:100E90005BEA0A0005D009E0A16904986D1C884747
:100EA0000746216A384688470028F5D1781C03D0C8
:100EB0005FEAC97005D01BE04FF0FF3007B0BDE816
:100EC000F08F2068011D2160D0F8008010E05FEAFB
:100ED000C97007D16A464046B9B200F05EFD411CB8
:100EE00031D08044A1696D1C0498761E884707465E
:100EF000002E14DD781C12D0BBF1000007D03B4659
:100F0000DDE9101200F01CFD0028E0D107E0BAF185
:100F1000000FDCD13846216A88470028D7D0E16924
:100F200004988847BAF1000F06D1002D04DD5FEA6E
:100F3000C97001D188F80000A068B04203DDBAF1A1
:100F4000000F03D016B16FF00100B7E72846B5E7F0
:100F50002DE9FF5F9B46144600273D469169D2E983
:100F60000196DDF840A00198884780465BEA0A00B8
:100F700005D009E0A16901986D1C88478046216A67
:100F8000404688470028F5D1B8F1FF3F03D05FEA1B
:100F9000C97005D014E04FF0FF3004B0BDE8F09FF9
:100FA0002068011D216007680AE05FEAC97001D16D
:100FB00027F8028BA1696D1C0198761E8847804630
:100FC000002E15DDB8F1FF3F12D0BBF1000007D0B5
:100FD0004346DDE90E1200F0B3FC0028E5D107E03E
:100FE000BAF1000FE1D14046216A88470028DCD0E1
:100FF000E16901988847BAF1000F05D1002D03DDA2
:101000005FEAC97000D13880A068B04203DDBAF150
:10101000000F03D016B16FF00100BEE72846BCE711
:1010200010B5203AC0F00B80B1E81850203AA0E883
:101030001850B1E81850A0E81850BFF4F5AF5FEAB7
:10104000027C24BFB1E81850A0E8185044BF18C96A
:1010500018C0BDE810405FEA827C24BF51F8043B11
:1010600040F8043B08BF7047D20728BF31F8023B65
:1010700048BF11F8012B28BF20F8023B48BF00F8F9
:10108000012B7047004870478828002003464068BD
:101090008C46002818BF88423CBF03464068F8D3FE
:1010A00018681844884207D00CF1030020F00700AC
:1010B000001D411A521A0146081D0A60FFF757B970
:1010C00010B5044600F0B6FC0068005D00F00100B9
:1010D00010BD00002DE9F34F4FF0000A0C465646B4
:1010E0008DB001200C9001F10C000B9062690B98FF
:1010F00001219047051E2DD0252D2CD0216A88472F
:10110000C0B162690B9801219047216A8847002885
:10111000F7D16269411E0B98904700E0761CA169E7
:101120000D988847216A88470028F7D1E1690D9812
:101130008847DBE7A1690D988847A842074601D197
:10114000761CD3E7E1690D9888477F1C02D1BAF17C
:10115000000F6FD06CE162690B9800273D4639465D
:1011600090472A2804D162690B98012190470125F4
:10117000DFF8D08262690B9801219047A0F130011D
:101180000A290AD24745E5DC07EB870100EB410756
:10119000303FDFD445F01005ECE7E90601D46FF0ED
:1011A00000476C280AD04C2814D0682815D06A282B
:1011B0000DD074281CD07A281AD01DE062690B98D3
:1011C000012190476C2802D045F0040514E045F059
:1011D00002050DE045F020050AE062690B98012147
:1011E0009047682802D045F0080505E045F4006501
:1011F00062690B9801219047C4E9015765283DD0E9
:1012000019DC58287AD00CDC452837D004DC252896
:1012100026D041289ED131E046282FD0472899D1A9
:101220002CE05B2877D0612828D063287CD0642804
:1012300023D15AE0F7E06F2848D008DC66281DD09B
:1012400067281BD0692821D06E2816D127E0702886
:1012500045D0732868D0752847D078280DD14DE047
:10126000A1690D988847252805463FF469AFE169D3
:101270000D9888476D1C3FF46AAFD9E00D9923465D
:101280006A466FF001000BF0FDF9C6E045F0400042
:1012900023464FF000026060A80736D43EE0E8071E
:1012A0007FF447AF2068011D21600068290501D542
:1012B00006701BE7290701D5068017E7A90703D5A4
:1012C000F117C0E9006111E706600FE745F0400043
:1012D00023464FF008026060A80716D41EE040F6CF
:1012E0000E0125EA0100606016E045F0400023464B
:1012F0004FF00A026060A80707D40FE045F04000F5
:101300006060A80708D5234610220D996FF00100F0
:10131000FFF7CFFB81E007E0102223460D996FF025
:101320000100FFF789F978E04FF0000963284F4684
:10133000C8464B46CB4602D05B2807D039E020791F
:10134000C00601D40120A060012732E06269D4F810
:101350000CB00B98012190475E2807D14FF001098E
:1013600049466269D4F80CB00B989047216939B9A5
:1013700000210A4603AB43F82120491C0829FADB67
:10138000D8B3216949B308F1010862690B980121BA
:1013900090475D28F4D1B9F1000F09D0002003A9CE
:1013A00051F82020D24341F82020401C0828F7DBC8
:1013B00003AB2069002820794FEA40701ED05B46BD
:1013C0002246CDF80080CDE901970D9900286FF0F5
:1013D000010020DAFFF7BCFD1FE0C11703AA00EBF4
:1013E000D1614B1121F01F0102EB8302411A1368F6
:1013F0000120884003431360C7E719E00D99224696
:1014000000286FF00100009702DAFFF7A3FC04E068
:10141000FFF7FAFB01E0FFF727FD00280ADA401C7E
:1014200006D10C9820B14FF0FF300FB0BDE8F08F1F
:101430005046FAE7E90701D10AF1010A0644002003
:101440000C9053E6CCCCCC0C2DE9FF4F06468BB06C
:101450000878FF2806D0491C2D2805D000244FF01D
:10146000000908E000200CE00124F8E709EB8903FB
:10147000491C00EB43090878FF28F7D114B1C9F1E2
:1014800000008146107800252C46AA4629462D28C2
:1014900001D02B2804D1521C2D2813D000208246C5
:1014A0008B461078FF280FD04FF0000C0A21521CF9
:1014B000A5FB017804FB018105FB0C11C5194BEB61
:1014C0000104EEE70120EAE7002108464FF00000A2
:1014D000BAF1000F02D000EB80004008C0F3815742
:1014E000012F01DD4FF0FF370E9955EA040009EB9B
:1014F00001080BD04FF0020918F5FA7F16DA4FEA0F
:10150000CA70002F706008DD012007E04FEACA7042
:10151000C6E900B00FB0BDE8F08F0020306000F0E9
:1015200095FAC0F800901821084616E0B8F5FA7F41
:1015300018DD002F02DAF748784401E0F6487844D5
:10154000D0E90010C6E9001040EACA70706000F0EF
:101550007DFAC0F80090142108460FB0BDE8F04FA6
:101560000BF02DB8002108464FF00000B8F1000143
:10157000099002DAC7F1000200E03A4601DAC8F148
:10158000000106A800F066FA06AB93E8070003AB7B
:1015900083E8070044F23E005BEA040100905846ED
:1015A00004D144F21E012C465D460091210C090431
:1015B000014306D10099240444EA15442D0410394E
:1015C000009104F07F41014306D10099240244EACE
:1015D00015642D020839009104F07041014306D1D1
:1015E0000099240144EA15742D01091F009104F0AB
:1015F0004041014306D10099A40044EA9574AD002E
:10160000891E009104F00041084304D100986D192F
:101610006441401E00904FF001033A466846B8F11D
:10162000000FCDE9014503A902DD00F0F6FF01E05E
:1016300000F0C9FFBAF1000F04460D4601D084F056
:101640000044002108464FF00000099940F2FF775E
:10165000484010F00C0F07D124F00040284303D07D
:10166000C4F30A50B84212D100F0F0F9C0F800906B
:10167000C4F30A50B8420AD1A8487844D0E900100F
:10168000C6E9001004F000410843706042E7C6E973
:1016900000543FE72DE9FF4F1F464FF0000A4FF07F
:1016A000FF38454691B0D7E90146CDF83CA000F09F
:1016B000C9F9C0680168405C1090B96912986D1C46
:1016C0008847396A814688470028F6D1B9F1FF3F3B
:1016D0000AD0002E24F4D06411DDB9F12B0F08D00C
:1016E000B9F12D0F0BD102E0404615B013E744F4D9
:1016F0008064B96912986D1C8847761E8146600522
:1017000004A901D52D2000E02B20002E01F1010BB2
:101710000DF130088DF810003FDDB9F1690F08D0E8
:10172000B9F1490F05D0B9F16E0F02D0B9F14E0FE2
:101730001CD13B4601A8009580E85002DDE9121259
:101740006FF002000AF0A2FFC11CCED10EE0B96911
:1017500012986D1C884781461398761E44F40074D5
:1017600005600F98401C002E0F9016DDB9F1300F68
:10177000EDD0B9F1780F02D0B9F1580F0DD10F9813
:1017800001280AD13B46CDE90054DDE91212001FC1
:1017900002960AF079FFC11CA7D1109989453ED164
:1017A00044F0800406E01399681CAAF1010A44F48D
:1017B00000740860B9696D1C1298761E884730283D
:1017C0008146F0D02BE01099894505D1200603D43D
:1017D000761E44F0800418E0484604F0CCFD08B3BF
:1017E000761E0DF123018B4544F4007408D2A9F153
:1017F00030000BF8010B200607D5AAF1010003E029
:10180000200602D40AF101008246A00502D51399F0
:10181000681C0860B96912986D1C88478146002EC3
:10182000D1DC53E0002E51DDB9F1650F02D0B9F1E2
:10183000450F4BD1A00549D5B9696D1C1298761E8C
:1018400024F440748847002E81460CDD2B2804D0F8
:10185000B9F12D0F07D144F48074B96912986D1C49
:101860008847761E8146E00501D52D2100E02B2119
:1018700008F8011BCDF8008021E0761E0DF139013A
:10188000884544F400740CD2A9F1300010F0FF0038
:1018900088F8000002D10099884509D908F10108AB
:1018A00006E0E00501D51E4801E042F20F708246D5
:1018B000B96912986D1C8847814613980560002EFF
:1018C00004DD484604F057FD0028D6D1F969129886
:1018D0008847FF2053468BF8000088F8000000205E
:1018E0000A900B9004AA0CA90AA8FFF7ADFDA00569
:1018F00002D46FF00100F8E614F0240F12D0E007D4
:101900001CD13868DDE90A12031D3B600068C0E99C
:10191000001213E0D0B30000C2B3000086B2000092
:10192000F1D8FFFF0AA9684604F0B4FCE00705D12E
:101930003868009A011D3960006802602846D4E6C4
:1019400010B508E030F8024B9C4204D10AB10020E7
:1019500010BD012010BD491EF4D2104610BD70B557
:1019600016460C46054600F065F8036893F8010139
:10197000012804D0185D68B101202C8070BDD3F817
:1019800003013246214603F2031303442846BDE80F
:10199000704018474FF0FF3070BD70B516460C46CA
:1019A000054600F047F8036893F80101012806D0C6
:1019B000FF2C0FD8185D68B101202C7070BDD3F8D2
:1019C00007013246214603F2071303442846BDE8C7
:1019D000704018474FF0FF3070BD10B500F0BAF8F6
:1019E000BDE8104000F0B1B870477546FFF74AFBFC
:1019F000AE4605006946534620F00700854618B0FC
:101A000020B5FEF773FCBDE820404FF000064FF014
:101A100000074FF000084FF0000B21F00701AC4623
:101A2000ACE8C009ACE8C009ACE8C009ACE8C00942
:101A30008D46704710B500F005F8001D10BD00BFC1
:101A4000559A000000487047A828002000487047B9
:101A5000882800202DE9F047814616468AB035488F
:101A600078440DC88DE80D0032487844801C03ACE2
:101A70000DC884E80D0041F69B300844372190FBE7
:101A8000F1F290FBF1F5A5F1800501FB12041B3C7E
:101A900002D56442012000E00020DFF898A08046D3
:101AA0000027FA44AAF1BE0A0EE0E0070AD0324647
:101AB000684607EB470101230AEB810100F098FD1E
:101AC0008DE8070064107F1C002CEED1194F7F4475
:101AD000AE3F19E0E80715D007EB04100DF1180A26
:101AE00090E80E008AE80E00C068F04201D1981913
:101AF00008903246012306A903A800F079FD03AB44
:101B000083E807006D10641C002DE3D14FF0010342
:101B100032466946B8F1000F03A802D000F03EFD3E
:101B200001E000F065FDC9E90001C9F808200AB02C
:101B3000BDE8F087D8AD000010B50446AFF30080D3
:101B40002046BDE81040FEF771BB002801D000F030
:101B500029B8704710B5012805D0002103A000F076
:101B60005DFA012010BD09A1F8E700005349475272
:101B7000544D454D3A204F7574206F66206865615D
:101B800070206D656D6F7279000000003A20486525
:101B90006170206D656D6F727920636F7272757000
:101BA0007465640001491820ABBEFEE72600020000
:101BB00010B5FFF74BFF006810BD10B50446FFF7E6
:101BC00045FF046010BD00002DE9FF4F1F464FF098
:101BD0003C0987B04FF00042DDE9141001F1010823
:101BE000DDF858A002EA405003900020059083469B
:101BF000054604460490B969461E08988847AAF12C
:101C0000010A0290BAF1000F3BDD02982E2815D090
:101C10001021FEF740FF00282EDB4FF0010B059945
:101C2000014317D0B9F1000F0BDB4A46C11700F092
:101C300056FA05430C43A9F1040905E0012004907C
:101C40000BE008B145F0010501200590049820B98A
:101C5000361D02E0049800B1361FB969089808F1F2
:101C600001088847BBF1000FAAF1010A0290C9D010
:101C70000999C1F80080C5E70298702808D050285B
:101C800006D0F96908988847BBF1000F14D04FE0DF
:101C9000002002900120BBF1000F049009D0B96927
:101CA000089808F101088847AAF10109B9F1000F65
:101CB00007DCF969089888476FF001000BB0BDE8B0
:101CC000F08F2B2804D02D280CD14FF0FF3004903A
:101CD000B969089808F101088847A9F10109B9F123
:101CE000000FE6DD411CE4D00A21FEF7D4FE0028F7
:101CF000DFDB029908F1010801EB810100EB4100F3
:101D00000290B969089888470A21FEF7C4FE099A2B
:101D1000A9F10109B9F1000FC2F8008001DD002826
:101D2000E7DAF969089888470499029800FB016688
:101D300055EA040004D004F04041090002D006E056
:101D4000039898E0A40044EA9574AD00B61E04F030
:101D50000041080002D16D196441761E159810F0FB
:101D6000240F03D04FF00B095C4803E04FF0280923
:101D70006FF07D008246564507DAAAEB06018944DA
:101D8000B9F1410F01DD4FF0410901200021A9F116
:101D9000010200F0A4F9024628400B462140084306
:101DA00001D0012100E00021501E029143F1FF31DA
:101DB00028402140084301D0012000E00020029982
:101DC000834651EA0B014FD0002108464FF0000036
:101DD000039900F4400039B100EB80004FF440015A
:101DE00000EBD07001EA60008015012802DD4FF0A1
:101DF000FF3000E013D0401C36D0029860B3BBF136
:101E0000000F0CD14A460120002100F068F928405B
:101E10002140084301D0012000E00020E0B1012072
:101E20004A46002100F05BF9034640190A46614129
:101E30002D1A8C4111D3B9F1400F09DD159810F01E
:101E4000240F02D0AAF1340603E0AAF1170600E03D
:101E5000761C00254FF0004406E05B1E42F1FF3285
:101E600020EA030521EA0204CAF10100B04206DAC1
:101E70001B49039808430190002000900EE0039A4C
:101E8000C4F3D321E80A0A43164940EA44500A43FE
:101E90003146CDE90002684604F062FA159810F068
:101EA000240F0BD01598C00715D13868DDE9001252
:101EB000031D3B600068C0E900120CE002A86946FF
:101EC00004F0E8F91598C00705D13868029A011D99
:101ED0003960006802604046F0E6000002FCFFFF47
:101EE0000000F07F0000F03F2DE9FF4F92461D46B5
:101EF00085B04FF00041DDE9124BDDE914727F1E21
:101F000001EA4B50414940F0FF4940EA01080021F5
:101F100022F020004928049102D04E2828D04CE01D
:101F20003BA0012607C88DE80700A9690698641C34
:101F300088477F1E014606D41DF8060018B121F01F
:101F4000200181420BD0E96906988847032E34D0DE
:101F5000082E32D06FF0010009B0BDE8F08F761C7A
:101F6000032E01D0082EE0D1601CCAF80000DCE787
:101F7000A9690698641C88477F1E2AD420F0200097
:101F8000412826D1A9690698641C88477F1E20D461
:101F900020F020004E281CD1A9690698641C8847AF
:101FA0007F1E48F4002849F48009CAF8004001D493
:101FB000282806D0E969069888475FEACB7012D0D6
:101FC00022E0A9690698641C88477F1E01D4002876
:101FD00003DAE96906988847BCE72928F1D1641C2F
:101FE000CAF80040E9E71BF0240F07D028680499DD
:101FF000031D2B600068C0E9001805E02868021D79
:102000002A600068C0F800902046A5E70000F07F35
:10201000494E46494E4954590000000070B50546E6
:102020000C460A2000E06D1C00F052F835B128780B
:102030000028F8D102E0641C00F04AF814B12078BE
:102040000028F8D1BDE870400A2000F041B8000037
:102050004FF0013C50F8042B51F8043B9A4221D137
:10206000A2EB0C03934313EACC1317D150F8042BC3
:1020700051F8043B9A4215D1A2EB0C03934313EAA7
:10208000CC130BD150F8042B51F8043B9A4209D1E0
:10209000A2EB0C03934313EACC13DBD04FF0000008
:1020A000704700BFD01A01BAB1FA81F101F01801EE
:1020B00022FA01F0CB40C1F12001DBB2C0B2C01A5C
:1020C0002CFA01F3D11A914311EAC311E6D17047FA
:1020D00008B569468DF800000320ABBE08BDB2F11B
:1020E00020030AD5C2F1200301FA02F120FA03F31A
:1020F00000FA02F041EA0301704700FA03F14FF0E1
:102100000000704720F07F4C80EA030023F07F47F7
:10211000ACEB070303F57C5300F0004003F1FF0331
:102120002DE980494FEA154B09B44FEA144325EADB
:102130000B4E24EA03480FF2042606EB1327490846
:102140003E785FEA320203FB0667C7F5000707FB2C
:1021500006F64FEA54374FEAD64606F1020607FB69
:10216000066CCCF1005C4FEA1C472CEA074C07FBDD
:1021700006F40CFB06F504EB15464FEA961634BF41
:1021800000204FF000404FEAD13706FB07FC4FEA32
:102190001C4C0CFB0BF7D21B03FB0CF761EB07018C
:1021A0000CFB0EF7B0EB074072EB17420CFB08F785
:1021B00034BFA2EB0742B2EB074261EB17414FEA93
:1021C0000C444FEA910706FB07FC4FEA1C4C0CFB42
:1021D0000BF7B0EBC74072EB573203FB0CF734BF81
:1021E000A2EBC742B2EBC74261EB57310CFB0EF7D3
:1021F000B0EBC70072EB57720CFB08F734BFA2EBD1
:10220000C702B2EBC70261EB5771039F4FEA8161CE
:1022100041EA921104EBCC044FEAD1374FEA8262D3
:1022200006FB07FC42EA90124FEA80604FEA1C4C22
:102230000CFB0BF7D21B03FB0CF761EB07010CFB4C
:102240000EF7B0EB074072EB17420CFB08F734BFF8
:10225000A2EB0742B2EB074261EB17414FEA8C5504
:102260004FEA910704EB9C2406FB07FC4FEA1C4C49
:102270000CFB0BF7B0EBC74072EB573203FB0CF7CC
:1022800034BFA2EBC742B2EBC74261EB57310CFB44
:102290000EF7B0EBC70072EB57720CFB08F734BFB8
:1022A000A2EBC702B2EBC70261EB577115EB4C25ED
:1022B0004FEA816141EA92114FEA82624FEAD137D7
:1022C00042EA901206FB07FC44F100044FEA8060EA
:1022D0004FEA1C4C0CFB0BF7D21B03FB0CF761EB1A
:1022E00007010CFB0EF7B0EB074072EB17420CFB3B
:1022F00008F734BFA2EB0742B2EB074261EB17418C
:1023000015EB1C154FEA813141EA92414FEA8232C6
:1023100042EA90424FEA80304FEA0C7644F10004E2
:1023200048EA03434EEA0B484FF0000EB2EB080CAC
:1023300071EB030724BF624639464EEB0E0E4FF099
:10234000000B0018524149414BEB0B0BB2EB080C50
:1023500071EB03077BF1000B24BF624639464EEB5D
:102360000E0E4FF0000B0018524149414BEB0B0B86
:10237000B2EB080C71EB03077BF1000B24BF624644
:1023800039464EEB0E0E51EA020718BF46F0010621
:1023900016EB0E7655F1000254F1000103D5BDE8AD
:1023A0008901BDE80088BDE88901BDE80048B6198B
:1023B000524141EB0101A3F10103704780807F7E10
:1023C0007D7C7B7A797877767675747372717170AB
:1023D0006F6E6E6D6C6C6B6A6A696868676666655D
:1023E0006464636362616160605F5F5E5E5D5D5CEB
:1023F0005C5B5B5A5A59595858575756565555555C
:102400005454535352525251515050504F4F4F4EBB
:102410004E4D4D4D4C4C4C4B4B4B4A4A4A49494909
:10242000484848474747474646464545454444444B
:1024300044434343434242424241414146EA064605
:10244000A3F570534FEA164646EA42564FEAD222A7
:1024500042EA415210B54FEAD121A3F1010300F045
:102460002FF820F0004000F1020C00F0004701EBD3
:1024700000501146BCF5006F40EA070000D210BDC5
:10248000BAF1000F0AD01CB503B44FF004004FF0AE
:1024900004014FF000000FBCBDE810404FF00001F8
:1024A000BBF1010FB9BF04484FF0FF3103480021D1
:1024B00040EA070010BD00BFFFFFEF7F0000F07F84
:1024C000002B9C4630D477002BD01CB54FEA370741
:1024D00003B44FF010004FF01001BAF1000F06D016
:1024E000BCF1000FDCBF40F0080040F008014FF0E5
:1024F00000000FBCBDE810400BF1010BBBF1010F58
:1025000008BF5FEA170722BF12F1010211F10101B2
:102510004FF0004143F1000300F0004043EA0000A7
:102520007047F9D35708D0E746EA064613F1400F43
:102530004FEA16461FDD13F1200FDFBF16430A4690
:10254000002120335B42BED0C3F1200746EA064695
:1025500002FA07F74FEA164646EA0706C3F12007D4
:1025600022FA03F201FA07F721FA03F14FF0000310
:1025700042EA0702A7E746EA020646EA06464FEAAB
:10258000164646EA0106BCBF46EA0646360C4FF040
:1025900000034FF000024FF0000194E72DE9804C5A
:1025A0009A46934670B491E8380007C831EA400C67
:1025B00048BF34EA430C03D5FFF7A4FDFFF780FFC3
:1025C000F0BCBDE8008C2DE9804C9A46934670B46F
:1025D00091E8380007C831EA400C48BF34EA430CA0
:1025E00003D5FFF78FFDFFF729FFF0BCBDE8008C96
:1025F0002DE9804C9A46934670B491E8380007C89C
:1026000010F0804F08BF13F0804F03D100F01AF88C
:10261000FFF756FFF0BCBDE8008C2DE9804C9A46D0
:10262000934670B491E8380007C810F0804F08BF97
:1026300013F0804F03D100F005F8FFF7FFFEF0BC68
:10264000BDE8008C20F07F4780EA030023F07F4C38
:1026500007EB0C03A3F57C5300F00040A3F1FE034D
:1026600092F0000F00F0B38095F0000F00F077803B
:102670002DE901494FEA11404FEA144621EA00488A
:1026800000FB06FC24EA064708FB06F607FB08F8F1
:1026900000FB07F718EB06484CEB164C4FEA124BC1
:1026A00018EB07484FEA15464CEB174022EA0B4E51
:1026B0000BFB06FC25EA06470EFB06F607FB0EFEA3
:1026C0000BFB07F71EEB064E4CEB164C4FF00006CB
:1026D0001EEB074E4CEB174B18EB0B0840F10000BC
:1026E00018EB0E0B58EB000840F100008F1A4FF06A
:1026F00000013CBFC943661B14BFB5EB040C0021AD
:102700003CBFC943F61B4FEA17444EEA8E0E27EA38
:1027100004454FEA1C4704FB07622CEA074C05FB03
:1027200007F70CFB05F604FB0CFC16EB074642EB27
:10273000174216EB0C4642EB1C421BEB060658EB0D
:102740000202414146EA9E0601D5BDE80189B6195B
:10275000524141EB0101A3F10103BDE801894FEAB8
:1027600014454FEA114724EA054621EA074C05FBC8
:1027700007F406FB07F70CFB06F105FB0CFC11EB5D
:10278000074144EB17444FEA124711EB0C4144EB6D
:102790001C4422EA074C05FB07F206FB07F70CFB7B
:1027A00006F605FB0CFC16EB074642EB174216EB50
:1027B0000C4642EB1C456A1854F1000148BF7047B3
:1027C000B619524141EB0101A3F10103704795F0A5
:1027D000000F37D04FEA11424FEA144721EA024670
:1027E00024EA074C02FB07F106FB07F70CFB06F493
:1027F00002FB0CFC14EB074441EB17414FEA154771
:1028000014EB0C4441EB1C4125EA074C02FB07F595
:1028100006FB07F70CFB06F602FB0CFC16EB074663
:1028200045EB174516EB0C4645EB1C42121951F1CE
:10283000000148BF7047B619524141EB0101A3F1B5
:10284000010370474FEA14454FEA114724EA054651
:1028500021EA074C05FB07F106FB07F70CFB06F224
:102860004FF0000605FB0CFC12EB074241EB174151
:1028700012EB0C4251EB1C4148BF7047921841EBE0
:102880000101A3F1010370472DE9F04F87B0044621
:10289000DDF8408092461E46474A116006F02CFD46
:1028A0000121092006F03CFE0121204606F038FEF9
:1028B000142102A8FDF7F4FF4FF47A7007F0ECFF43
:1028C0000025AB4602AF4FF0000900240721119804
:1028D00006F0DCFDCDF804B001AA38481299FDF7E6
:1028E0006FFE012809D123213448FDF7B7FFBDF859
:1028F000040010B1BDF8049003E0641CE4B20A2C9B
:10290000E4D327F815906D1CEDB20A2DDBD30A2114
:1029100002A800F093F885B2A5EB0A0009F0AEFC1E
:1029200009F030FB21F0004108F0CAFD244909F00C
:10293000C3FBDFF890A0514609F000FD814600235B
:102940000022541C37F8120037F81410884203D9BB
:1029500027F8121027F81400521C092AF1DB5B1C1F
:10296000194C0A2BECDB194FBDF8080027F81600AC
:10297000701C27F81050B01CBDF81A1027F8101062
:102980005146484609F0DAFC09F058FCF61C27F8D5
:1029900016004846216909F09DFC06D80C48012123
:1029A00001FA08F102880A4302802078401C207056
:1029B00007B0BDE8F08F000038340140DC0500208E
:1029C0000060EA460000C842EC010020CC0800206C
:1029D00058010020FEE70000014800F01DBD000086
:1029E000C8040020014800F017BD00008404002046
:1029F000014800F011BD00000C050020014800F066
:102A00000BBD00005005002030B590F84050012467
:102A1000AC40C56B6C60046863604368102B04D0E5
:102A2000036899600068C26030BD03689A600068FE
:102A3000C16030BD704772B6FEE700002DE9F04F6F
:102A400087B081468B4600242546002000908246B0
:102A5000BBF1000F01D0002208E0002007B0BDE864
:102A6000F08F39F810100C195541401C5845F8DB0F
:102A70005A464FEAEB7320462946FDF79FFC044671
:102A80000D464FF0000837E02046294608F0DAFFEF
:102A9000CDE90510CDE903104FF033321C4B09F09E
:102AA00053F8CDE90110DDE9033208F03BFD06469D
:102AB0000F4639F8180008F0B2FF32463B4609F0DD
:102AC00007F817D2DDE90132DDE9051009F070F9E8
:102AD00006460F4639F8180008F0A1FF32463B467B
:102AE00009F030F906D239F818100098084400901F
:102AF0000AF1010A08F10108D845C5DBBAF1000F57
:102B000003D00098B0FBFAF0A8E70020A6E7000089
:102B10003333D33F10B500220121054800F071FF87
:102B2000BDE8104000224FF48051024800F069BF18
:102B3000000801400010014010B5002201210548A5
:102B400000F05FFF0122BDE810401103024800F0D1
:102B500058BF0000000801400010014090F82020FC
:102B6000012A07D0022A05D0416A41F4802141623E
:102B700001207047006842690A43426100207047A3
:102B800010B5026890F82030012B07D0022B05D039
:102B9000416A41F480214162012010BDD2F8000257
:102BA00040F00100C2F80002087D00F01F03012080
:102BB0009840D2F81C328343C2F81C32CB69B3B9B7
:102BC000D2F80C328343C2F80C328C894B6864F320
:102BD0001F434C6902EBC404C4F840320C890B68F3
:102BE00064F31F434C6902EBC404C4F84432CB695C
:102BF000012B16D1D2F80C320343C2F80C320C88E8
:102C00004B6864F31F434C6902EBC404C4F84032C0
:102C10000C89CB6864F31F434C6902EBC404C4F80D
:102C200044328B697BB1D2F804320343C2F80432D8
:102C30000B6973B1D2F814320343C2F81432096A33
:102C400001290CD010E0D2F804328343C2F80432D8
:102C5000EEE7D2F814328343C2F81432EFE7D2F829
:102C60001C120143C2F81C12D2F8000220F001002D
:102C7000C2F80002002010BD0121002006F03CBC7B
:102C800070B590F82040012C07D0022C05D0416A85
:102C900041F480214162012070BD21B104682469A2
:102CA000A4072AD003E00468E468A4071FD04FF407
:102CB000D874056804EB01142D5905F004059560DE
:102CC0000DB305682D59ED08556005682C5904F0C1
:102CD0000204D4604FF4DA74056804EB01142E5931
:102CE00006F00F06082E13D30825156114E0416A7B
:102CF00041F400114162012070BD416A41F40011AC
:102D00004162012070BD05682D596D0D1560DCE72D
:102D10002D5905F00F05156105682D59C5F30725D7
:102D2000956105682C59240C54614FF4DC720468D9
:102D300002EB0112A4581C700468A458240A5C70A9
:102D40000468A458240C9C700468A258120EDA700F
:102D50004FF4DE72046802EB0112A4581C7104687F
:102D6000A458240A5C710468A458240C9C7104685B
:102D7000A258120EDA7131B10068016941F02001E8
:102D80000161002070BD0068C16841F02001C16090
:102D9000F7E72DE9F05F0546002428684669D0F87A
:102DA00004908768D0F80CA0D0F810B0D0F8188044
:102DB000F10748D0F90714D001218160B80703D585
:102DC000284600F055FA0CE0780702D54FF400646D
:102DD00007E0380702D54FF4805402E0284600F09F
:102DE00046FAF80516D529684FF480708860B80552
:102DF00003D5284600F03EFA0CE0780502D544F4ED
:102E0000005407E0380502D544F4804402E0284627
:102E100000F02FFAF80316D529684FF48030886047
:102E2000B80303D5284600F027FA0CE0780302D552
:102E300044F4004407E0380302D544F4803402E04F
:102E4000284600F018FA300707D55FEACA6004D5B3
:102E500044F4007429681020C86070074FF0080718
:102E600007D55FEA0A7004D52868C760284600F0D5
:102E70008FF9B00706D52868C068800702D02846B9
:102E800000F088F9700607D55FEACB6004D544F4FA
:102E90008064296810200861B00607D55FEA0B70CE
:102EA00004D528680761284600F08AF9F00606D59F
:102EB00028680069800702D0284600F083F9B00333
:102EC00008D55FEAC96005D5296810204860284602
:102ED00000F0A0F9F00307D55FEA097004D528686F
:102EE0004760284600F0C9F9300446D55FEA4970CA
:102EF00040D5F00504D55FEAC87001D044F0010464
:102F0000B00504D55FEA887001D544F0020470056D
:102F100004D55FEA487001D544F00404300529D592
:102F200018F0700F26D008F07000402815D006DC8D
:102F3000102809D020280AD0302816D10AE05028BD
:102F40000ED0602811D10EE044F008040DE044F0EA
:102F500010040AE044F0200407E044F0400404E0D8
:102F600044F0800401E044F480742868816921F011
:102F700070018161296804204860002C05D0686ACE
:102F8000204368622846FFF777FEBDE8F09F70B5E2
:102F90000446002C03D094F8200010B104E0012076
:102FA00070BD204600F09CF82068016841F00101E6
:102FB000016000F02DFD054605260CE000F028FD1F
:102FC000401B0A2807D9606A40F40030606284F828
:102FD0002060012070BD20684068C007EED02068E6
:102FE000016821F00201016000F012FD05460CE0CD
:102FF00000F00EFD401B0A2807D9606A40F400303B
:10300000606284F82060012070BD206840688007FD
:10301000EED4207E01283FD02068016821F0800195
:103020000160607E01283DD02068016821F04001E8
:103030000160A07E01283BD02068016821F02001BA
:103040000160E07E012839D02068016841F010015C
:103050000160207F012837D02068016821F0080135
:103060000160607F012835D02068016821F00401EB
:103070000160D4E902010843D4E904121143084372
:103080006168491E08432168C86100206062012010
:1030900084F82000002070BD2068016841F08001A4
:1030A0000160BEE72068016841F040010160C0E7AF
:1030B0002068016841F020010160C2E720680168D2
:1030C00021F010010160C4E72068016841F00801A7
:1030D0000160C6E72068016841F004010160C8E7AB
:1030E00030B585B0002101910291039104910068EF
:1030F000234CA04242D12348C16941F00071C16113
:10310000C16901F000710091816941F0080181619C
:10311000806900F008000090A01501901A4D01A9E7
:10312000284600F055FB611501910221029103210F
:10313000049101A9284600F04BFB1449486820F48B
:10314000C04040F0E06040F480404860002205212B
:10315000132000F0F3FC132000F0E2FC0022052114
:10316000142000F0EBFC142000F0DAFC206820F4BE
:1031700080302060206820F00200206005B030BD63
:103180000064004000100240000C014000000140BB
:103190007047000000B589B06B4602AA0021FFF716
:1031A0006FFD064928B1087820F00800087009B0C2
:1031B00000BD087840F008000870F8E754010020CE
:1031C0007047000000B589B06B4602AA0021FFF7E6
:1031D00057FD0E4928B1087820F00800087009B0A2
:1031E00000BD087840F008000870094B039A9A4225
:1031F00008D1069A082A05D1020703D440F0080036
:103200000870ECE720F008000870E8E7540100209F
:10321000A9C2FF18704770B5044694F82000012831
:1032200005D0606A40F400206062012070BD022079
:1032300084F820002068016821F00101016000F09D
:10324000E7FB05460DE000F0E3FB401B0A2808D928
:10325000606A40F400306062052084F8200001209C
:1032600070BD20684068C007EDD1606270BD7047D6
:1032700070477047704770477047704710B590F8B7
:1032800021100022022905D00421816380F820202A
:10329000012010BD01680B6823F00E030B6001686C
:1032A0000B6823F001030B6090F84030C46B0121E0
:1032B00001FA03F3636080F8211080F820201046A3
:1032C00010BD00002DE9F05F002590F821100229C3
:1032D00003D004218163012595E001680A6822F08A
:1032E0000E020A6001680A6822F001020A60474E75
:1032F000464FB215DFF814C1DFF81081DFF80C91EA
:10330000DFF808A1DFF804B10168783F1301140267
:10331000ACF1640CA8F15008A9F13C09AAF1280A03
:10332000ABF1140B4FF4801EB1422FD9B94201D139
:10333000012227E0614501D1102223E0414521D03F
:10334000494501D11A461DE0514501D1224619E0F7
:10335000594501D1724615E02D4EB14201D10122ED
:1033600010E02B4E1436B14201D110220AE0284E53
:103370002836B14206D0264A3C32914201D11A4643
:1033800000E022462249091F0A6033E0B94201D118
:1033900001222CE0614501D1102228E0414526D0D0
:1033A000494501D11A4622E0514501D122461EE08D
:1033B000594501D172461AE0B14202D14FF08072F4
:1033C00015E0134EB14201D1012210E0104E143627
:1033D000B14201D110220AE00D4E2836B14206D08A
:1033E0000B4A3C32914201D11A4600E0224607497D
:1033F00080394A60012180F82110002180F82010D6
:10340000416B01B188472846BDE8F09F800002402B
:1034100008040240806B70472DE9F05FC16B0A68B9
:1034200001680B68046C4FF0040E0EFA04FE9A4D0E
:103430009A4E9B4FDFF86CC2DFF86C82DFF86C921B
:10344000DFF86CA2DFF86CB21EEA020F7BD05FEAF5
:10345000437E78D50A68920603D40A6822F00402F3
:103460000A60DFF848E24FF4806201680EF1140E42
:103470001301140271452DD9A94201D1042225E07E
:10348000B14201D1402221E0B9421FD0614501D1B2
:103490001A461BE0414501D1224617E0494502D1B9
:1034A0004FF4800212E0514501D104220EE059454B
:1034B00001D140220AE07F4D1435A94206D07D4A51
:1034C0002832914201D11A4600E022467849091F6C
:1034D0000A6032E0A94201D104222BE0B14201D1BD
:1034E000402227E0B94225D0614501D11A4621E0AA
:1034F000414501D122461DE0494502D14FF48002E9
:1035000018E0714502D14FF0806213E0514501D1BE
:1035100004220FE0594501D140220BE0654D1435DE
:10352000A94207D0634A2832914202D11A4601E0EB
:1035300009E02246584908394A60C16A00296FD01B
:10354000BDE8F05F08474FF0020E0EFA04FE1EEAD7
:10355000020F74D05FEA837E7FD50A68920606D494
:103560000A6822F00A020A60012180F82110DFF8BF
:103570003CE14FF4007201680EF1140E13011402C5
:1035800071452DD9A94201D1022225E0B14201D1D4
:10359000202221E0B9421FD0614501D11A461BE02B
:1035A000414501D1224617E0494502D14FF40012AE
:1035B00012E0514501D102220EE0594501D12022ED
:1035C0000AE03C4D1435A94206D03A4A28329142CD
:1035D00001D11A4600E022463549091F0A6033E04E
:1035E000A94201D102222CE0B14201D1202228E0DF
:1035F000B94226D0614501D11A4622E0414501D1A8
:1036000022461EE0494502D14FF4001219E07145EF
:1036100002D14FF0007214E0514502D1022210E0B5
:1036200038E0594501D120220BE0224D1435A94242
:1036300007D0204A2832914202D11A4601E00CE01C
:103640002246154908394A60002180F82010816A15
:1036500000291FD0BDE8F05F08470825A5401542A6
:1036600018D01A0716D50A6822F00E020A6090F8E0
:103670004020C36B012101FA02F25A60816380F895
:103680002110002180F82010016B002902D0BDE834
:10369000F05F0847BDE8F09F080002401C000240B0
:1036A0003000024044000240580002406C000240DA
:1036B000080402401C04024030B500280DD01B4B0A
:1036C0000168142299420AD2194B0B44B3FBF2F25F
:1036D00092000264174AC2630BE0012030BD134B15
:1036E0005B420B44B3FBF2F2920002640F4A083AC9
:1036F000C2630222001D42770A6843F6F0739A43C0
:10370000D0E900342343D0E902452C432343046924
:103710002343446923438469234313430B600021FB
:103720004163012242770177002030BD0804024046
:10373000F8FFFDBF0000024070B50446002594F874
:10374000200001280CD0012084F8200094F821608A
:103750000020012E06D084F820000225284670BDE6
:10376000022070BD022684F82160A06320680668EC
:1037700026F0010606602046FFF746F9E06A28B108
:103780002068016841F00E01016009E020680168CD
:1037900021F0040101602068016841F00A01016024
:1037A0002068016841F001010160D7E770B5044667
:1037B00000F02EF90546601C02D00448007804444D
:1037C00000F026F9401BA042FAD370BD2000002073
:1037D0002DE9F84F00240023DFF8E0914FF00F08A7
:1037E000A9F1040B09F1040AABF1040EDFE0012793
:1037F000A7403A40BA4275D1DFF8C4C14D68A5EB85
:103800000C0665452BD00DDC032D34D005DC35B31B
:10381000012D19D0022D2FD11BE0112D16D0122D04
:103820002AD119E0B6F5881F19D006DCB6F5803F1D
:1038300015D0B6F5801F1FD111E0B6F5001F0ED0D0
:10384000B6F5041F18D10AE0CB6815E0CB681B1D44
:1038500012E0CB6808330FE0CB680C330CE08B68C8
:1038600023B1012B04D00823476105E0042303E0C2
:103870000823076100E00023FF2A01D8054601E084
:1038800000F1040502D84FEA840603E0A4F108061B
:103890004FEA86062F6808FA06FC27EA0C0703FAA7
:1038A00006F647EA06072F604D68ED007ED5454DC8
:1038B000AE6946F00106AE61AD6905F001050095FF
:1038C000414D24F003067719BE68A5072D0F08FAAD
:1038D00005FC26EA0C06DFF8F4C0604503D14FF082
:1038E000000C25E062E0DFF8E8C0604502D14FF04F
:1038F000010C1DE0DFF8DCC0604502D14FF0020C86
:1039000016E0DFF8D4C0604502D14FF0030C0FE0A1
:10391000DFF8C8C0604502D14FF0040C08E0DFF8C2
:10392000C0C0604502D14FF0050C01E04FF0060C1D
:103930000CFA05FC4CEA060CC7F808C04D68ED020D
:1039400005D5D9F800501543C9F8005004E0D9F85E
:1039500000509543C9F800504D68AD0205D5DAF81E
:1039600000501543CAF8005004E0DAF800509543BF
:10397000CAF800504D68AD0305D5DBF8005015437B
:10398000CBF8005004E0DBF800509543CBF8005032
:103990004D68ED0305D5DEF800501543CEF8005014
:1039A00004E0DEF800509543CEF80050641C0A682D
:1039B00032FA04F57FF41BAFBDE8F88F080401402C
:1039C00000001110001002400000014000080140FA
:1039D000000C01400010014000140140001801409B
:1039E000001C01408068084201D00120704700207F
:1039F0007047C26821EA02030A4043EA02410161BA
:103A00007047002A01D001617047090401617047C5
:103A1000014880687047000020000020024881684B
:103A200002781144816070472000002010B50748DB
:103A3000016841F010010160032000F09FF80F20A1
:103A400000F006F800F04AF8002010BD0020024007
:103A500030B587B005461C48816941F40061816139
:103A6000806900F40060009001A902A800F042F90A
:103A700000F074F91549B0FBF1F1491E1548144ADC
:103A8000026040F2E732C26041600022026182605F
:103A9000826100F079FD044694B90E4800F010FEF2
:103AA00004466CB9192000F03BF8102D07D2002213
:103AB0002946192000F042F80748056000E001247B
:103AC00007B0204630BD00000010024040420F0009
:103AD000002C0140940500202400002008B50E4869
:103AE000816941F001018161816901F00101009169
:103AF000C16941F08051C161C06900F080500090FF
:103B000000220F21901E00F019F80449486820F0A7
:103B1000E060486008BD0000001002400000014065
:103B2000002809DB00F01F020121914040098000BC
:103B300000F1E020C0F8001170470000F0B40D461D
:103B40000D4B1B68C3F30223C3F10704042C00D9F7
:103B50000424191D072901D2002300E0DB1E0126E1
:103B600006FA04F1491E294099409E40761E1640EF
:103B70003143F0BC02F06FBB0CED00E000F0070138
:103B8000054A10684FF6FF03184040EA0120034938
:103B900008431060704700000CED00E00000FA05DB
:103BA0002DE9F04704460D46002C17D0DFF8308190
:103BB000D8F8000000F00700A84211D2D8F80000A1
:103BC00020F007002843C8F80000D8F8000000F0F3
:103BD0000700A84204D00120BDE8F0870120FBE7E0
:103BE0002068404E810712D5400703D5706840F425
:103BF000E06070602078000703D5706840F4605082
:103C000070607068A16820F0F00008437060207850
:103C1000C0072CD06068012806D0022809D031687E
:103C200089070BD40120D7E73168890306D4012026
:103C3000D2E73168890101D40120CDE7716821F014
:103C4000030101437160FFF7E3FE074641F2883943
:103C500006E0FFF7DDFEC01B484501D90320BBE7A6
:103C60007068616800F00C00B0EB810FF1D1D8F8FA
:103C7000000000F00700A8420ED9D8F8000020F09C
:103C800007002843C8F80000D8F8000000F007003B
:103C9000A84201D001209FE72078400705D5706831
:103CA000E16820F4E060084370602078000706D5E2
:103CB0007068216920F4605040EAC100706000F033
:103CC0005DF87168084AC1F30311515CC8400749A7
:103CD000086007480068FFF7BBFE00207CE7000093
:103CE000002002400010024062C700082C000020A3
:103CF000240000200F2202600B4A536803F00303E4
:103D00004360536803F0F0038360536803F4E06397
:103D1000C360526802F46052D2080261034800682E
:103D200000F00700086070470010024000200240C9
:103D300001480068704700002C00002000B5FFF724
:103D4000F7FF04494968044AC1F30221515CC840A5
:103D500000BD00000010024072C7000800B5FFF768
:103D6000E7FF04494968044AC1F3C221515CC840D5
:103D700000BD00000010024072C700080F4A5168E1
:103D800001F00C00042803D0082803D00C48704729
:103D90000C4870470C48C1F38343C05CC9030AD583
:103DA0005168094AC1F34041921E515C054A504393
:103DB000B0FBF1F0704705494843704700100240DE
:103DC00000127A000024F40052C7000800093D00E8
:103DD0002DE9F84F0446002C0ED02078D94DC007AD
:103DE0005ED06868C0F3810001280BD06868C0F31A
:103DF0008100022803D00CE00120BDE8F88F68683C
:103E0000C00306D5286880034AD56068A8BB012096
:103E1000F3E76068B0F5803F11D0A8B1B0F5A02FEE
:103E20001BD0286820F480302860286820F4802087
:103E30002860606830B3FFF7EBFD06461EE0286897
:103E400040F480302860F4E7286820F4803028604F
:103E5000286820F480202860EBE7286840F4802060
:103E60002860286840F480302860E2E7FFF7D0FD42
:103E7000801B642802D90320BFE711E02868800373
:103E8000F4D50DE0FFF7C4FD064606E0FFF7C0FDE0
:103E9000801B642801D90320AFE728688003F5D48C
:103EA0002078DFF8A48280074FF0010A4FF0000964
:103EB00045D5686810F00C0F07D06868C0F3810022
:103EC000022812D16868C0030FD42868800704D57F
:103ED0002069012801D001208FE72868616920F05E
:103EE000F80040EAC100286029E02069B8B1C8F8AC
:103EF00000A0FFF78DFD064606E0FFF789FD801B59
:103F0000022801D9032078E728688007F5D52868BA
:103F1000616920F0F80040EAC10028600FE0C8F8AD
:103F20000090FFF775FD064606E0FFF771FD801B68
:103F3000022801D9032060E728688007F5D420789B
:103F4000000726D58148A16999B1C0F800A0FFF704
:103F50005FFD064606E0FFF75BFD801B022801D9E6
:103F600003204AE7686A8007F5D5012001F03EFC8E
:103F70000FE0C0F80090FFF74BFD064606E0FFF7A4
:103F800047FD801B022801D9032036E7686A8007B5
:103F9000F5D42078400773D50026E869C00008D41E
:103FA000E86940F08050E861E86900F080500090D6
:103FB0000126DFF89CB1DBF80000C00514D4DBF863
:103FC000000040F48070CBF80000FFF721FD0746A9
:103FD00006E0FFF71DFDC01B642801D903200CE794
:103FE000DBF80000C005F4D5E068012812D0B0B1BC
:103FF00005281DD0286A20F001002862286A20F0D8
:1040000004002862E06841F2883B28B3FFF700FD16
:1040100007461DE0286A40F001002862F2E7286A9E
:1040200020F001002862286A20F004002862E9E7F5
:10403000286A40F004002862286A40F001002862E3
:10404000E0E7FFF7E5FCC01B584501D90320D4E6A3
:10405000286A8007F5D50DE0FFF7DAFC074606E091
:10406000FFF7D6FCC01B584501D90320C5E6286AD6
:104070008007F5D4012E03D1E86920F08050E86173
:10408000E069A0B36968C1F38101022946D0022822
:1040900005D0C8F86090FFF7BBFC04463AE0C8F8CA
:1040A0006090FFF7B5FC064606E0FFF7B1FC801B09
:1040B000022801D90320A0E628688001F5D4206AEF
:1040C000B0F5803F05D16868A16820F4003008434E
:1040D0006860D4E908010843696821F47411084351
:1040E0006860C8F860A0FFF793FC044607E026E08C
:1040F000FFF78EFC001B022801D903207DE628680B
:104100008001F5D51BE0FFF783FC001B022801D9D5
:10411000032072E628688001F5D410E001280CD055
:104120006868226A00F48031914204D1616A00F427
:104130007010884203D001205FE601205DE6002078
:104140005BE6000000100240000042428004424250
:104150000070004070B50446002C09D0606A00254C
:1041600040B125616561A56294F8510040B10CE051
:10417000012070BD6068B0F5827FF4D0E561F2E7A0
:1041800084F85050204600F03FF8022084F8510097
:104190002068016821F040010160A088218900F4B5
:1041A000827001F404410843A18901F400610843CD
:1041B000217C01F002010843217D01F00101084347
:1041C000218B01F400710843217F01F0380108437D
:1041D00094F8201001F080010843218D01F4005172
:1041E000084321680860A069042101EA10402168A1
:1041F00048602068C16921F40061C16165650120E2
:1042000084F85100002070BD00B585B000210191F7
:1042100002910391049100680F4988421AD10F4816
:10422000816941F480518161816901F4805100917B
:10423000816941F004018161806900F0040000900F
:10424000A0200190022002900320049001A90448BC
:10425000FFF7BEFA05B000BD00300140001002407B
:10426000000801402DE9F84F04468A4617461D46CE
:10427000FFF7CEFB064694F85100012802D0022039
:10428000BDE8F88FBAF1000F23D0380021D094F8A0
:10429000500001281FD04FF0010984F850900320EE
:1042A00084F851004FF00008C4F85480C4F830A0DE
:1042B000A786E786C4F83880A4F83C80A4F83E803E
:1042C000C4F84480C4F84080A068B0F5004F04D022
:1042D0000DE00120D4E70220D2E72068016821F038
:1042E000400101602068016841F48041016020685C
:1042F0000168490603D4016841F040010160E068AB
:10430000B0F5006F04D0606888B3012F30D050E062
:10431000606808B1012F20D1206B21680088C86037
:10432000206B801C2063E08E401EE08615E0206834
:104330008168890709D5216B0988C160206B801CC1
:104340002063E08E401EE08607E0FFF761FB801BE4
:10435000A84201D3681C04D11DB1E08E0028E6D12B
:104360002AE084F8519084F85080032088E7FFE722
:10437000206B216800780873206B401C2063E08E5E
:10438000401EE08615E020688168890709D5216B09
:1043900009780173206B401C2063E08E401EE0868C
:1043A00007E0FFF735FB801BA84201D3681C0ED144
:1043B0006DB1E08E0028E6D132462946204601F054
:1043C00027FA08B120206065A06830B109E084F8C0
:1043D000519084F85080032052E72068C1688068BB
:1043E000009084F8519084F85080606D08B10120ED
:1043F00046E7002044E77047704710B590F83C202E
:10440000012A22D0012280F83C20CA6800238C684F
:1044100022F4407222434C6822F4806222430C68EA
:1044200022F4006222430C6922F4805222434C6938
:1044300022F400522243C96922F480420A430168EF
:104440004A6480F83C30002010BD022010BD0000FE
:1044500070B590F83C20012A2BD0012680F83C60F2
:10446000022280F83D2002685368956823F07004AA
:104470000B6823435360104B02689A420ED00F4BD7
:104480009A420BD0B2F1804F08D00D4B9A4205D022
:104490000C4B9A4202D00C4B9A4204D125F0800377
:1044A0004968194391603C3046700021017000203A
:1044B00070BD022070BD0000002C0140003401409E
:1044C0000004004000080040000C004010B5044605
:1044D000002909D004290AD008290BD094F84500F6
:1044E00001280AD0012010BD94F84200F8E794F8A2
:1044F0004300F5E794F84400F2E7022059B3042999
:104500002CD008292DD084F845000422206801F021
:10451000FDFA2068416C41F400414164154920686E
:1045200088420ED0144988420BD0B0F1804F08D099
:104530001249884205D01249884202D01149884266
:1045400012D1816801F00701062911D0016841F0FC
:10455000010101600CE084F84200D6E784F84300D2
:10456000D3E784F84400D0E7016841F0010101601D
:10457000002010BD002C0140003401400004004028
:1045800000080040000C004010B50446002C03D089
:1045900094F83D0010B107E0012010BD002084F820
:1045A0003C00204600F016F8022084F83D00211D52
:1045B000206801F05BFA01203D3460726070A070E9
:1045C000E07020716071A071E07120722070002095
:1045D00010BD000000B585B000210191029103914A
:1045E0000491184A01681848914217D1C16941F0F5
:1045F0000201C161C16901F002010091816941F0CC
:1046000020018161806900F0200000900420019069
:1046100001A90E48FFF7DCF805B000BD0C4A914235
:10462000FAD1C16941F00401C161C06900F0040020
:104630000090002205211E20FFF780FA1E20FFF7C0
:104640006FFAE9E700040040001002400014014046
:104650000008004090F83D10012901D0012070476A
:10466000022180F83D100068104988420ED01049A0
:1046700088420BD0B0F1804F08D00E49884205D057
:104680000D49884202D00D49884209D1816801F064
:104690000701062908D0016841F00101016003E02B
:1046A000016841F00101016000207047002C0140C9
:1046B000003401400004004000080040000C0040AD
:1046C00090F83D10012901D001207047022180F8A7
:1046D0003D100168CA6842F00102CA6000681149D1
:1046E00088420ED0104988420BD0B0F1804F08D0DC
:1046F0000E49884205D00E49884202D00D498842B1
:1047000009D1816801F00701062908D0016841F04C
:104710000101016003E0016841F001010160002036
:1047200070470000002C01400034014000040040AC
:1047300000080040000C00400168CA6822F0010235
:10474000CA6001680A6A41F211131A4207D10A6A63
:104750009B101A4203D10A6822F001020A6001216B
:1047600080F83D100020704770B50446002594F88D
:104770003C00012817D0012684F83C60022084F810
:104780003D002068826822F0770222F47F42826036
:104790000868502838D00DDC202853D005DC90B3B1
:1047A000102811D14EE0022070BD30284AD0402898
:1047B0000AD13DE0602831D070280CD0B0F5805F80
:1047C00003D0B0F5005F12D001253C3466700020A4
:1047D0002070284670BDCB68D1E90121206801F026
:1047E000A2F92068816841F077018160EDE7CB682C
:1047F000D1E90121206801F096F92068816841F42F
:1048000080418160E1E71DE0CA684968206801F0E5
:10481000B3FA5021206801F090F9D6E7CA684968D8
:10482000206801F0BAFA6021206801F086F9CCE72F
:10483000CA684968206801F09FFA4021206801F0A9
:104840007CF9C2E722680146104601F076F9BCE720
:1048500070472DE9F04104462068C56806694FF0AD
:104860000007B10714D5A90712D5F91E016101206F
:10487000207720688069800703D02046FFF7E8FF93
:1048800005E0204600F0A8F8204600F04BF9277715
:10489000700717D5680715D521686FF00400086107
:1048A000022020772068806910F4407F03D02046E2
:1048B000FFF7CEFF05E0204600F08EF8204600F01E
:1048C00031F92777300716D5280714D521686FF0FE
:1048D00008000861042020772068C069800703D0A1
:1048E0002046FFF7B5FF05E0204600F075F82046AA
:1048F00000F018F92777F00617D5E80615D52168D6
:104900006FF010000861082020772068C06910F45B
:10491000407F03D02046FFF79BFF05E0204600F0D4
:104920005BF8204600F0FEF82777F00708D0E8078C
:1049300006D021686FF001000861204600F0F4F80D
:10494000300608D5280606D521686FF0800008617A
:104950002046FFF750FD700608D5680606D5216889
:104960006FF040000861204600F02EF9B0060AD52D
:10497000A80608D521686FF0200008612046BDE830
:10498000F041FFF739BDBDE8F081000000B585B00A
:104990000021019102910391049100680B49884222
:1049A00011D10B48816941F008018161806900F0F3
:1049B000080000900120019002200290049001A9BB
:1049C0000448FEF705FF05B000BD000000340140BB
:1049D00000100240000C0140704770B504460D46BF
:1049E000002694F83C0001280FD0012084F83C00F8
:1049F0006AB1042A1FD0082A32D00C2A44D00126DA
:104A0000002084F83C00304670BD022070BD29466D
:104A1000206801F09BF82068816941F008018161FC
:104A20002068816921F004018161206881692A6917
:104A300011438161E4E72946206801F0BBF8206852
:104A4000816941F4006181612068816921F480619C
:104A50008161206881692A6941EA02218161CFE789
:104A60002946206801F0E0F82068C16941F008019A
:104A7000C1612068C16921F00401C1612068C16978
:104A80002A691143C161BBE72946206801F004F996
:104A90002068C16941F40061C1612068C16921F4E5
:104AA0008061C1612068C1692A6941EA0221C1614E
:104AB000A6E710B50446002C03D094F83D0010B1D1
:104AC00007E0012010BD002084F83C00204600F0E3
:104AD00015F8022084F83D00211D206800F0C6FF73
:104AE00001203D3460726070A070E07020716071D0
:104AF000A071E07120722070002010BD08B5006820
:104B00000649884208D10648816941F40051816113
:104B1000806900F40050009008BD0000003401409E
:104B2000001002407047000010B504460D4920688F
:104B3000884201D1FEF772FF0B49206888420FD1ED
:104B40000A4C2068406A0A4908800A48FFF7F4FDC9
:104B5000216800204862BDE810400648FFF7B0BD5C
:104B600010BD0000002C0140000800401C03002084
:104B7000000000206403002070B5044694F83C0057
:104B800001280FD0012584F83C50022084F83D0014
:104B9000204601F0ABF8002130B13C346570217043
:104BA000012070BD022070BD2068C26822F0400262
:104BB000C2602068C26822F48042C26084F83D501E
:104BC00084F83C10002070BD704738B5044694F856
:104BD0004200202801D0022038BD71B16AB1012005
:104BE000206300206063204601F0A2FA0346206B98
:104BF000012804D00123184638BD012038BD2068A3
:104C000001684068009020680C3050E8001F41F0B7
:104C1000100140E80012002AF5D1ECE72DE9FC4133
:104C200004462B48844203D123222A49FFF7CDFFB3
:104C3000294884424AD1294F7888401C78802848E6
:104C400000260670FF2227492348FFF7BEFF2549AB
:104C5000FF22A1F1FF00FBF7B4FD00241D4D233519
:104C60003978285D88422DD100960196002069464A
:104C70002218AA5C0A54401CC0B20828F8D39DF838
:104C80000300082806D19DF80100062802D1012062
:104C90008DF800000621684600F026FB9DF80610FE
:104CA0009DF8072041EA022188420BD1082168467D
:104CB00005F072FCCD210B48FBF7D0FDFEF7A8FEF6
:104CC00009490860641CE4B2FF2CC9D3BDE8FC812B
:104CD000F4030020DC0500203C04002070010020CB
:104CE000BE010020FE060020C401002070B504466D
:104CF00020680C3050E8001F21F4907140E8001249
:104D0000002AF5D12068143050E8001F21F001017D
:104D100040E80012002AF5D1206B012809D1206853
:104D20000C3050E8001F21F0100140E80012002A6A
:104D3000F5D1206840694FF00005400615D5206880
:104D4000143050E8001F21F0400140E80012002A12
:104D5000F5D1E06B48B14563E06BFEF78FFA20B107
:104D6000E06BFEF757FB202806D0E585202084F86D
:104D700042002563002070BD10206064032070BDD8
:104D800070B504461A4DAC421BD1606C606C606C0F
:104D9000800709D5286840682846FFF7A7FFCD227D
:104DA00014492846FFF711FF606C400709D52868B1
:104DB00040680F48FFF79AFFCD220E490C48FFF7D5
:104DC00004FF0D48844211D1616C616C616C616CAF
:104DD00049070BD5006840680748FFF787FFBDE823
:104DE0007040232205490448FFF7EFBE70BD000064
:104DF0003C040020FE070020F4030020DC05002016
:104E0000F8B5044622681068D168536900F00F06AF
:104E1000002E08D1850606D58D0604D52046BDE8AE
:104E2000F84001F0C4B80025002E66D003F001065A
:104E300001F49077374360D0C20705D0CA0503D587
:104E4000626C42F001026264420705D5DA0703D0C2
:104E5000626C42F002026264820705D5DA0703D071
:104E6000626C42F004026264020707D501F020027E
:104E7000324303D0626C42F008026264626C002A22
:104E800031D0800604D5880602D5204601F08FF87F
:104E900020684069C0F38010616C090700D438B302
:104EA000204601F042F82068406940061CD5206881
:104EB000143050E8001F21F0400140E80012002AA1
:104EC000F5D1E06B60B159494163E06BFEF7FAF947
:104ED000002808D0E06B416B01B0BDE8F040084706
:104EE0002046FFF74DFFF8BD2046FFF749FFF8BD0C
:104EF0002046FFF745FF6564F8BD236B012B7DD18C
:104F0000C3067BD5CB067ED51068506800905069EB
:104F10004FF0200340064FF0020643D5E16B0868CE
:104F2000406880B20028E7D0A28D8242E4D9E085B3
:104F3000886920282DD020680C3050E8001F21F40B
:104F4000807140E80012002AF5D12068143050E842
:104F5000001F21F0010140E80012002AF5D120686D
:104F6000143050E8001F21F0400140E80012002AF0
:104F7000F5D184F84230256320680C3050E8001FDA
:104F800021F0100140E80012002AF5D1E06BFEF795
:104F900075F96663A08DE18D401A81B22046FFF756
:104FA0003DFEF8BDA08DE18D401A81B2E08D002854
:104FB000F7D00029F5D020680C3050E8002F22F4FB
:104FC000907240E80027002FF5D12068143050E897
:104FD000002F22F0010240E80027002FF5D184F8CD
:104FE0004230256320680C3050E8002F22F0100278
:104FF00040E80023002BF5D1666300E003E0204683
:10500000FFF70CFEF8BD020606D50A0604D52046B9
:10501000BDE8F84001F0D6B84006F3D54806F1D512
:105020002046BDE8F84000F0A7BF0000E15D0008A1
:1050300070B50446002C04D094F84100002510B14E
:1050400006E0012070BD84F84050204600F024F8AE
:10505000242084F841002068C16821F40051C16017
:10506000204601F009F82068016921F490410161AE
:105070002068416921F02A0141612068C16841F43A
:105080000051C1606564202084F8410084F842002A
:105090006563002070BD00002DE9F04186B0044634
:1050A00000250295039504950595DFF868C12168F0
:1050B000594802220323594E80274FF010086145BA
:1050C00051D1816941F480418161816901F480415C
:1050D0000191816941F004018161806900F004005F
:1050E0000190100202900392059302A93046FEF748
:1050F0006FFB301502900395049502A93046FEF728
:1051000067FB484E464830607560B560F7603561B2
:105110007561B561F5613046FEF7CEFA08B1FDF76D
:105120008AFCE66374623E483E4E14384436306072
:10513000C6F80480B560F76035617561B561F561E9
:105140003046FEF7B9FA08B1FDF775FCA663746244
:10515000002205212520FEF7F1FC2520FEF7E0FCCA
:1051600006B0BDE8F081DFF8C0C06145F8D1C16983
:1051700041F40031C161C16901F4003101918169DB
:1051800041F004018161806900F004000190042075
:1051900002900392059302A93046FEF719FB0820FE
:1051A00002900395049502A93046FEF711FB1C48B6
:1051B0001C4E1430883630607560B560F76035611C
:1051C0007561B561F5613046FEF776FA08B1FDF715
:1051D00032FCE66374621248124E2830CC363060DE
:1051E000C6F80480B560F76035617561B561F56139
:1051F0003046FEF761FA08B1FDF71DFCA663746244
:10520000002205212620FEF799FC2620FEF788FCC7
:10521000A6E70000003801400010024000080140ED
:10522000580002408404002000440040704770474A
:1052300037B5044694F84100202801D002203EBD35
:10524000019959B352B32162A284E28400206064C0
:10525000212384F84130A56B114BAB62A56B114B38
:10526000EB62A56B104B2B63A36B5863206813464E
:10527000001DA56B02462846FEF75EFA21686FF016
:10528000400008602068143050E8001F41F08001A1
:1052900040E80012002AF5D100203EBD01203EBDAD
:1052A000DF5E0008215F0008F15D000870B504466C
:1052B00009480A4D844204D1012211022846FEF712
:1052C000A0FB0748844206D12846BDE87040002272
:1052D0000221FEF796BB70BDF403002000080140D8
:1052E0003C0400207047FEE7F0B507464FF6FF701C
:1052F0000023094E0DE0FA5C5040002200F0010549
:10530000440836F815006040521CD2B2082AF5D382
:105310005B1C8B42EFD3F0BD7AC7000810B5114873
:105320000F49016009214160C9078160C909C16055
:105330004FF4402101614FF4801141610021017659
:10534000012242768176C27601774277FDF71FFE11
:10535000002803D0BDE81040FDF76DBB10BD000074
:10536000006400409C02002008B51548416941F0E6
:1053700001014161406900F0010000900022052117
:105380000E20FEF7DBFB0E20FEF7CAFB00220521F4
:105390000F20FEF7D3FB0F20FEF7C2FB00220521F2
:1053A0001020FEF7CBFB1020FEF7BAFB00220521F0
:1053B0001120FEF7C3FBBDE808401120FEF7B0BB8B
:1053C0000010024010B50E4A00210E4803F032FAD8
:1053D0000D4C20600A4A002124320C4803F02AFABE
:1053E0006060074A00214832094803F023FAA060B0
:1053F000034A00216C32074803F01CFAE06010BD3C
:10540000C0C600085959000804000020615900086E
:1054100081590008B55900082DE9F04F85B00024E6
:1054200001940294039404943448816941F010017A
:105430008161816901F010010091816941F02001D1
:105440008161816901F020010091816941F00401CD
:105450008161816901F004010091816941F00801D5
:105460008161806900F008000090DFF8949047F6B1
:10547000FF55002229464846FEF7C3FADFF884A00C
:1054800040F60317002239465046FEF7BAFADFF815
:1054900078B04FF6E048002241465846FEF7B1FA90
:1054A00001950125029503940226049601A9484618
:1054B000FEF78EF9019702950394049601A95046D0
:1054C000FEF786F9102001900294039401A950463A
:1054D000FEF77EF9062001900294039401A9584634
:1054E000FEF776F9CDF8048002950394049601A99D
:1054F0005846FEF76DF905B0BDE8F08F0010024088
:105500000010014000080140000C014010B5104897
:105510000E4901604FF48271416000218160C160D9
:10552000016141614FF4007282612022C261016217
:10553000416281620A21C162FEF70CFE002803D09D
:10554000BDE81040FDF777BA10BD00000030014003
:10555000C402002010B58CB00024089409940A9469
:105560000B94142103A8FBF79BF9019402941B48A8
:1055700019490160446084604FF6FF71C1600461A5
:105580008461FFF701F808B1FDF755FA4FF40050B8
:10559000089009940A940F200B9008A90F48FFF770
:1055A000E3F808B1FDF747FA052003903020049096
:1055B00003A90A48FFF7E0FA08B1FDF73CFA2020FA
:1055C0000190029401A90548FEF742FF002801D08E
:1055D000FDF731FA0CB010BD000400401C030020A0
:1055E00000B587B0002003900490059006900190CC
:1055F00002901649144A0A6041F61F424A608860C8
:1056000042F20F72CA60086188610846FEF7BCFF6B
:1056100008B1FDF710FA4FF48050039003A90B482E
:10562000FFF7A2F808B1FDF706FA102001908020DC
:10563000029001A90548FEF70BFF002801D0FDF7F5
:10564000FAF907B000BD0000000800406403002024
:1056500010B592B00024109411941C2109A8FBF7F6
:105660001FF9202101A8FBF71BF920481E49016002
:105670004460846040F65F11C160046144618461EC
:10568000FFF717FA08B1FDF7D6F91094119410A995
:105690001648FEF7DDFE08B1FDF7CDF96020099050
:1056A0000A940B940C940D940E940F94042209A95F
:1056B0000E48FFF792F908B1FDF7BDF90194029485
:1056C0000394049405944FF400500690089401A9A3
:1056D0000648FEF792FE08B1FDF7ADF90348FFF763
:1056E00055F912B010BD000000340140AC03002099
:1056F00010B50C480A4901604FF416514160002171
:105700008160C16001610C2242618161C161FFF76A
:105710008FFC002803D0BDE81040FDF78CB910BD08
:1057200000380140F403002010B50C480A4901601C
:105730004FF4E131416000218160C16001610C22C0
:1057400042618161C161FFF773FC002803D0BDE8AD
:105750001040FDF770B910BD004400403C0400202B
:10576000FEE7000008B508210A4803F08FFE01207B
:1057700000906A4608A10B48FAF740FF012808D1BB
:105780009DF80000002804D1024810380178491C17
:10579000017008BDD80100204D6F6465203D2025B3
:1057A00068686400DC050020FEE7000010B5FEF725
:1057B0002FF90B4940F2DC530B4C0968421A094897
:1057C0004FF400519A4205D30022FEF71AF9002047
:1057D000207210BD0122FEF714F90120207210BDC5
:1057E000C4010020001001404801002008B507490D
:1057F0004FF4FA520968B1FBF2F14143009100BF46
:105800000098411E0091FAD208BD00002C00002033
:10581000F8B504460E4615463346012202212046BD
:10582000009500F017F828B1606D40F02000606529
:105830000320F8BD3346002280212046009500F069
:1058400009F828B1606D40F0200060650320F8BDC4
:105850000020F8BD2DE9F84304460F4691461E4648
:10586000089DFEF7D5F8401B351AFEF7D1F88046A3
:1058700026480068C0F3CB30684300903AE0701CC3
:1058800038D0FEF7C5F8A0EB0800A84203D215B146
:10589000009858B32BE02068416821F0E001416096
:1058A0006068B0F5827F0BD1A068B0F5004F02D0E0
:1058B000B0F5806F04D12068016821F040010160DB
:1058C000A06AB0F5005F09D12068016821F4005199
:1058D00001602068016841F40051016001205034EA
:1058E0006070002020700320BDE8F8830025009838
:1058F000401E00902068806837EA000004D0002035
:105900004845BCD10020EFE70120F9E72C0000203A
:1059100010B5002201210548FEF773F8BDE81040DC
:1059200000224FF480510248FEF76BB80008014096
:105930000010014010B5012211460548FEF761F83C
:10594000BDE8104000224FF480510248FEF759B8DC
:105950000008014000100140012002F02DFFFBE78C
:10596000002004F06DFE054C2061002004F068FE6C
:1059700020610A2002F020FFF7E700000400002069
:10598000002004F05DFE094C60610948FDF702FC4F
:1059900002F0C4FEFFF70AFF03F032FE002004F01D
:1059A0004FFE6061322002F007FFEEE704000020A6
:1059B0009C020020002004F043FE064CA06103F08E
:1059C00009FF002004F03CFEA061642002F0F4FE18
:1059D000F5E700000400002010B54FF0E02000695A
:1059E00005F080FB012803D0BDE8104005F09AB80F
:1059F00010BD10B590B0282106A8FAF751FF142168
:105A000001A8FAF74DFF0121069108040790420012
:105A100008920A9102240D940E904FF4E0100F901A
:105A200006A8FEF7D5F908B1FDF705F80F2001909B
:105A30000294002003904FF48061049105900221AC
:105A400001A8FEF7ADF8002801D0FCF7F4FF10B074
:105A500010BD70470148FEF7FCBE00009405002011
:105A60000148FEF7F6BE0000640300202DE9F04176
:105A70000268214D214E224FDFF888C0224B4FF0A3
:105A80008048A84209D0984207D0404505D0B0428E
:105A900003D0B84201D0604503D122F070044A68B7
:105AA0002243A84209D0984207D0404505D0B042D1
:105AB00003D0B84201D0604503D122F44074CA68D3
:105AC00022434C6922F08002224302608A68C2624B
:105AD0000A688262A84201D0984201D10969016333
